:020000040800F2
:1000000000040020C100000851030008110400088A
:10001000110400081104000811040008110400086C
:10002000110400081104000811040008110400085C
:10003000110400081104000811040008110400084C
:10004000110400081104000811040008110400083C
:10005000110400081104000811040008110400082C
:10006000110400081104000811040008110400081C
:10007000110400081104000811040008110400080C
:1000800021040008110400081104000811040008EC
:1000900011040008110400081104000811040008EC
:1000A00011040008110400081104000811040008DC
:1000B000410C000811040008110400081104000894
:1000C00072B6204880F30988022080F31488BFF3B9
:1000D0006F8F00F035FB1C481C491D4A914202DA23
:1000E00008600431FAE71B49164A914202DA0860B7
:1000F0000431FAE71849194A194B9A4204DA086898
:10010000106004310432F8E700201649164A914283
:1001100002DA08600431FAE701F0BAFA134C144D20
:10012000AC4203DA216888470434F9E702F0E8FBBF
:10013000104C114DAC4203DA216888470434F9E7CA
:100140000E4908470006002055555555000000206F
:100150000004002000040020C06200080006002007
:10016000B8060020B806002068110020C000000872
:10017000C0000008C0000008C00000088116000888
:10018000F0B544464D4656465F46F0B46B46CB60EC
:10019000C3689D46F0BCA046A946B246BB46F0BD2A
:1001A00062B6281CA047002000F0DAFF00F068FBD0
:1001B000014A024B1360FEE704ED00E000000080FE
:1001C000002243088B4274D303098B425FD3030A96
:1001D0008B4244D3030B8B4228D3030C8B420DD3A9
:1001E000FF22090212BA030C8B4202D31212090237
:1001F00065D0030B8B4219D300E0090AC30B8B4275
:1002000001D3CB03C01A5241830B8B4201D38B0322
:10021000C01A5241430B8B4201D34B03C01A5241C7
:10022000030B8B4201D30B03C01A5241C30A8B420A
:1002300001D3CB02C01A5241830A8B4201D38B02F5
:10024000C01A5241430A8B4201D34B02C01A524199
:10025000030A8B4201D30B02C01A5241CDD2C3090B
:100260008B4201D3CB01C01A524183098B4201D387
:100270008B01C01A524143098B4201D34B01C01A72
:10028000524103098B4201D30B01C01A5241C308EA
:100290008B4201D3CB00C01A524183088B4201D359
:1002A0008B00C01A524143088B4201D34B00C01A45
:1002B0005241411A00D20146524110467047FFE7B1
:1002C00001B5002000F00CF802BDC0460029F7D0AF
:1002D00003B5FFF775FF0EBC4243891A1847C046A5
:1002E0007047C04600000000000000000000000051
:1002F0000122014B1A707047960E0020C046C0467E
:100300008023024A11680B43136070470044004089
:100310000F3011D072B6EFF30983203B83F30988C5
:1003200080225204DA61064A1168926989689268EB
:10033000914202D8034A9A617047034A9A61FBE7E7
:10034000200F0020B0010008AD010008C046C046E3
:10035000EFF30983203383F3098862B67047C04600
:1003600072B60722C31D93430649074A08681268FC
:10037000121A934203D8C3180B6062B6704700206C
:10038000FBE7C046900E0020CC100020C046C046BF
:1003900072B6037F072B0CD8114A9B00D3589F4697
:1003A000026A936801339360026843681A600268C6
:1003B000536001235B420362002382680377094B89
:1003C0001B6899689142FBD25A68036042601060D2
:1003D000586062B670470022036A1A60E9E7C046B7
:1003E000C0550008200F0020C046C046C046C04689
:1003F000024B034A9B699A61FEE7C046200F00202A
:10040000E0550008C046C046C046C046C046C0468B
:10041000FEE7C046C046C046C046C046C046C046CD
:10042000F8B546464F46C0B4224EF04633699B07A6
:1004300006D44046FFF76CFF0CBC90469946F8BDC9
:100440000023336172B61C4C726AE369E78C90B288
:10045000C11B1A8989B291421AD30021251C8946F1
:100460001C354846BA18E2841A68D9685560E261BA
:10047000D860AA421AD062B61869884772B6726A02
:10048000E369E78C90B2C11B1A8989B28A42E8D924
:100490000A498B4208D0BA18121A92B2012A07D917
:1004A0001218044B92B25A6362B6C2E7F060E2E7F8
:1004B0000222F5E700040040200F00203C0F00203E
:1004C0000C4A10B51068916903685A601360906116
:1004D0000122027700220A778A6800E01B689C6884
:1004E0009442FBD85A680B604A6011605960FFF76C
:1004F00047FE10BD200F0020C046C046C046C04683
:1005000038B54C24074D28682D210368013C9B68B1
:100510009847002CF7D128680349036802221B681A
:10052000984738BD68100020E8550008C046C0460E
:1005300010B5002304240648C258002A04D072B61D
:10054000517F2143517762B60433142BF4D110BD8F
:1005500090100020C046C046C046C046C046C046B7
:1005600072B60A4B5B6A62B61B041B0C5B1A521A0A
:100570000021934207DB0123054A01311370054A2C
:100580001370054B1860081C7047C04600040040FB
:10059000940E0020950E0020B8060020C046C046EC
:1005A000F0B584460F4F10483E68031C05E01578EF
:1005B000227801310133954209D10C1C1A1C9E424C
:1005C000F5D80B78002B02D13860002008E0012319
:1005D000064A01201370064A13706246054B1A60E2
:1005E000F0BDC046A4100020BC100020940E0020D6
:1005F000950E0020B8060020C046C046C046C04642
:100600000023002907D1054A01331370044A1370EF
:10061000044B18600123181C7047C046940E00203C
:10062000950E0020B8060020C046C046C046C04611
:1006300072B6034A1368591C1160187062B670478D
:10064000A4100020C046C046C046C046C046C046B2
:1006500008B50078FFF7ECFF08BDC046C046C046AD
:1006600038B50178041C094D002907D028680134E9
:1006700003689B68984721780029F7D128680449C6
:10068000036802221B68984738BDC04668100020E6
:10069000E8550008C046C046C046C046C046C046F1
:1006A00038B50178041C002908D0054D28680134AC
:1006B00003689B68984721780029F7D138BDC04668
:1006C00068100020C046C046C046C046C046C0466E
:1006D000F0B5474680B4061C84B0002823D0E84615
:1006E0006F46301C0A21FFF7F1FD01373031CCB2E3
:1006F0007D1E301C2C700A21FFF762FD061EF0D112
:1007000047450CD96B460B4E5F1E00E02C783068D5
:10071000211C0368013D9B689847BD42F6D104B097
:1007200004BC9046F0BD034B3021186803689B68F9
:100730009847F4E768100020C046C046C046C0464F
:100740000123022027490A6813430B600A68254BDE
:100750001042FBD003215A680C208A43191C5A60AE
:100760005A685A604B681F4A0340FBD1F920116850
:10077000014011605360516B01330B435363F738F1
:10078000516B184B0842FBD00122596A02200A43E0
:100790005A621A1C516A134B0842FBD0A1229203E1
:1007A0005A60002280218020DA621A631A684904A4
:1007B0000A431A60800419680A4A0142FBD01121D9
:1007C000094B0C201960022351680B435360536896
:1007D00004490340082BFAD18A69073B13438B6114
:1007E0007047C0460010024000200240C046C0468C
:1007F00008B5031C72B60068002803D002681A60AE
:1008000062B608BD9A68002AFAD058689047F7E7A0
:1008100072B6021C02E08B4205D01A1C1368834298
:10082000F9D162B670470B681360FAE7C046C0465C
:1008300010B572B60E4C2068A16983688A6893422D
:1008400001D262B610BD03685C602360A061012420
:10085000047700240C7700E01B689C68A242FBD957
:100860005A680B604A6011605960FFF789FCE8E73D
:10087000200F0020C046C046C046C046C046C04605
:1008800008B5FFF71DFE08BDC046C046C046C046BD
:1008900008B5054B1A689B6992689B689A4201D912
:1008A000FFF70EFE08BDC046200F0020C046C04620
:1008B00010B572B6074B9B69DC6B9A68944201D005
:1008C000824200D29860D863FFF7E2FF62B6201C34
:1008D00010BDC046200F0020C046C046C046C046DE
:1008E00038B5124B0162996982688C68A2420BD8B4
:1008F000002101771B6899688A42FBD95A68036016
:1009000042601060586038BD00220A771A1C1268D5
:100910009568AC42FBD954680A604C602160516014
:10092000986101230377FFF72BFCECE7200F0020F1
:1009300038B5134B9D6972B6C3680468AB63A042B7
:100940001AD0E96B002B09D01A68934203D0926841
:10095000914200D2111CDB68002BF5D12268A960FE
:1009600002605060A26B8460C2600021A063201C02
:10097000FFF7B6FF62B638BD00238360FAE7C046D2
:10098000200F0020C046C046C046C046C046C046F4
:1009900008B572B6836801338360002B01DD62B64F
:1009A00008BD031C0068002102681A605360FFF74D
:1009B00097FFF4E7C046C046C046C046C046C046A2
:1009C00010B5041C72B624394118C1600B61029B3A
:1009D0004B610F4B0B620223037700238260C263DB
:1009E000012243778363436383610A4B82775A69A9
:1009F0000361426110615861031C24334362043374
:100A00008362C3620021FFF76BFF62B6201C10BD3A
:100A1000A1010008200F0020C046C046C046C046C5
:100A200008B5064B996908771868026853601A6020
:100A3000986101230377FFF7A3FB08BD200F002077
:100A400010B572B60A4CA3691A1C986A28329042F3
:100A500006D0016899620D234A60037762B610BD23
:100A60000E20FFF7DDFFA3691A1C986A2832F0E711
:100A7000200F0020C046C046C046C046C046C04603
:100A800010B572B683680022013B8360002B02DB45
:100A900062B6101C10BD074CA3691862426818604A
:100AA0005A60136043600520FFF7BAFFA3691A6A12
:100AB000EEE7C046200F0020C046C046C046C046F4
:100AC000002382680377054B1B6899689142FBD22B
:100AD0005A6803604260106058607047200F002021
:100AE00008B5426983699A421DD0836801338360E7
:100AF000531C436111704369026993420CD203682D
:100B000098420ED01A68026050600022181C1A62C7
:100B1000FFF7D6FF002008BDC36843610368984211
:100B2000F0D10020F7E78368002BDFD0042040429B
:100B3000F1E7C046C046C046C046C046C046C046B3
:100B40008269436910B5934218D08368013383608A
:100B5000531C83611478026993420CD2026890425C
:100B600007D000231168016048601362101CFFF772
:100B7000A7FF201C10BDC3688361EFE78368002BCB
:100B8000E4D003204042F5E7C046C046C046C04618
:100B90000C4B10B59C6972B6031C2833236223608A
:100BA000C36A216363601C60037FC4620E2B05D09F
:100BB0000C20FFF735FF206A62B610BDFFF780FFFB
:100BC000F6E7C046200F0020C046C046C046C046DB
:100BD00008B5436B1943037F41630A2B0BD00B2BE2
:100BE00000D008BD036A19408B42FAD1002303628A
:100BF000FFF766FFF5E7036A0B42F2D000230362BA
:100C0000FFF75EFFEDE7C046C046C046C046C0469F
:100C100070B50468061C0D1CA0420ED0E3682B437F
:100C2000E360002D02D022691A4203D06068A168F7
:100C3000FFF7CEFF2468A642F0D170BDC046C04683
:100C4000F0B5454657464E46E0B43F4FF0467D6FFF
:100C50002E68EC692C62230734D1E3052AD4A3065D
:100C600017D48023334201D0234241D1630608D5F3
:100C700072B67B6CBA6C934246D040239E432E6082
:100C800062B64046FFF744FB1CBC90469946A2461C
:100C9000F0BD72B6AB8CDBB299467B69002B3BD0C2
:100CA0002A4B4946181C9A46FFF71AFF002838DBE2
:100CB00062B6D6E772B6802125488900FFF7A8FF03
:100CC00062B6CCE72107C90FC901E30701D520238C
:100CD0001943A30701D540231943630702D5802395
:100CE0005B00194372B61A48FFF792FF62B6B4E789
:100CF00072B6184B181C9946FFF722FF002816DB26
:100D000080B2288562B6B1E7BB6B002BB5D0381D29
:100D10001021FFF77DFFB0E7381D0421FFF778FFB2
:100D2000BEE7504680210838FFF772FFC0E748460B
:100D300008212C38FFF76CFFC023321C9A43803BFC
:100D400013432B60DEE7C046980E0020A40E00205F
:100D50009C0E0020C80E0020C046C046C046C046BB
:100D600038B5114B9C6972B6A36B002B1AD00025C5
:100D70000BE002681A605360826B9860DA608363EC
:100D8000FFF79EFEA36B002B08D0DA681868A263F9
:100D90008342EED19D60A36B002BF6D1E36BA36081
:100DA000FFF776FD62B638BD200F0020C046C04672
:100DB00038B5114B04689D69C368AB63A04218D075
:100DC000E96B002B09D01A68934203D092689142D4
:100DD00000D2111CDB68002BF5D12268A9600260EB
:100DE0005060A26B8460C260A063201CFFF768FEA5
:100DF00038BD00238360FBE7200F0020C046C046BB
:100E0000304B826870B59C69002A55D0A168936800
:100E1000051C994207D9137F9160062B33D0072B0D
:100E20001DD0002B12D02B1C03E09A68A1688A42C7
:100E300002D31B689D42F8D15A6823606260062085
:100E400014605C602562FFF7EBFD70BD11685368AC
:100E5000101C196011684B60FFF732FEE3E753681E
:100E60001068186010684360106A031C02E09E68F6
:100E70008E4202D31B689842F9D1596813605160C1
:100E80000A605A60CFE753681068186010684360C2
:100E9000106A031C02E09E688E4202D31B689842CF
:100EA000F9D15968136051600A605A608268A1687C
:100EB00093688B42AFD3B6E7A36B8460C360A06333
:100EC000C3E7C046200F0020C046C046C046C0460B
:100ED00008B572B6FFF794FF62B608BDC046C046BB
:100EE00070B5041C0E1C002818D0251C1035281CB9
:100EF000FFF7EEFFA36800220024002B06D05968FC
:100F00001B688C4601346244002BF8D1002E00D0BF
:100F10003260281CFFF70CFD201C70BD004CE4E77C
:100F200070100020C046C046C046C046C046C046FD
:100F300070B508380668041C351C10360835301C9E
:100F4000FFF7C6FF2B1CAB4204D0A34202D31B68A1
:100F5000AB42FAD11A68002A03D0944201D3131C81
:100F6000F1E7616822600A1C1C6008322068A21840
:100F7000824209D059680A1C08329A18944210D04B
:100F8000301CFFF7D5FC70BD506812688446614480
:100F900008316160596822600A1C08329A1894422C
:100FA000EED16268944622686144083159601A6043
:100FB000E6E7C046C046C046C046C046C046C0463A
:100FC00008B572B6837F013BDBB2837762B6002B34
:100FD00002D1037F0F2B00D008BD0322437F1340B3
:100FE000012B0DD0022BF7D1436902691A61026906
:100FF0005361036C72B61A680260186062B6EBE760
:10100000026943691A6102695361FFF791FFE3E7DF
:1010100038B5041C72B6037F0F2B07D0074B426A0A
:101020009B691A6043620920FFF7FAFC256A62B6E1
:10103000201CFFF7C5FF281C38BDC046200F00202C
:1010400070B5074C0026251C14352068002802D0F6
:10105000FFF7DEFF26600434AC42F6D170BDC04617
:1010600090100020C046C046C046C046C046C0469C
:10107000F0B5474680B4071E39D00723CE1D9E43E6
:10108000093398463D1CB84440460835FFF720FF19
:1010900003E063689E4214D9251C2C68002CF8D10B
:1010A0004046FFF745FC3B68002B22D0301C08303F
:1010B000984700281DD007604660083004BC904661
:1010C000F0BD321C08329A4208D923682B60404692
:1010D0002760FFF72DFC201C0830EFE721689B1BE1
:1010E000A218083B116053602A606660EFE7024F68
:1010F000C3E70020E2E7C04670100020C046C046AB
:1011000008B5836801338360002B00DD08BD031C34
:10111000006802681A60536000230362FFF7D0FC86
:10112000F4E7C046C046C046C046C046C046C046BA
:1011300070B5856881600135002D0CDC0226041C29
:10114000764260680135436863601C60FFF7B8FC55
:101150000662012DF5D170BDC046C046C046C046EE
:1011600038B572B60D4B9C69251C2062606A243527
:10117000A84206D003686362FFF7A2FC606AA84237
:10118000F8D1637F9B0704D1226963691A612269E0
:1011900053610F20FFF744FC38BDC046200F0020EC
:1011A0001B4B10B5DA6982420ED0416802681C33CD
:1011B0000A60026851600021C1609A4203D001892F
:1011C0001389CB18138110BD181C002411681C3022
:1011D000D9614860D460814217D010890A89821889
:1011E00092B20A810B49DB8C496A89B2CB1A9BB255
:1011F0009A42E8D9D21A92B2012A04D95218054B60
:1012000092B25A63DFE70222F8E7024BDC60DAE7CA
:10121000200F002000040040C046C046C046C04623
:1012200003611E4B70B55B6AC2609BB2012924D971
:101230001B4D2C1CEA691C34A24220D0C918EB8C2F
:1012400089B2CB1A14899BB2A34204D212E012686D
:101250001B1B14899BB29C42F9D351680260416008
:101260000860506003811189CB1A138101235B420E
:10127000AB8470BD094E7163EDE70221D8E7EB84C2
:10128000E8612862CB1802604260044A9BB2018187
:101290005363002313610233D360EAE70004004084
:1012A000200F0020C046C046C046C046C046C046CB
:1012B00030B50E4B87B0051C994212D00C4C01A8DA
:1012C000A3690C4AFFF7ACFF281CFFF7A9FB049B9E
:1012D000002B02D001A8FFF763FFA369186A07B0CB
:1012E00030BDFFF79DFB024CF7E7C046FFFF000053
:1012F000200F002091030008C046C046C046C046EB
:1013000010B58468031C621E82600020002A00DB86
:1013100010BD00290BD0074A926913625868136008
:10132000506002605A600520FFF7C2FFF0E79C6042
:101330000138EDE7200F0020C046C046C046C04639
:1013400008B500290AD0074B42689B6918605A60AB
:10135000136043600420FFF7ABFF08BD012040424B
:10136000FBE7C046200F0020C046C046C046C0462E
:10137000F0B54E46454657469946C369E0B4041C4D
:101380000E1C151C984672B60027A368002B1DD0B2
:10139000013BA36063695A1C6261721C92463278F9
:1013A0001A7063692269934201D3E368636143461B
:1013B000002B01D0201CC04762B6013D0137002D33
:1013C0000BD072B6A3685646002BE1D1201C4946CB
:1013D000FFF7B6FF0028D8D062B6381C1CBC904678
:1013E0009946A246F0BDC046C046C046C046C0466B
:1013F00008B53030FFF7BCFF08BDC046C046C04648
:1014000008B53030014BFFF7B3FF08BDFFFF000008
:1014100070B5041C0E1C151C72B605E0201C291C9E
:10142000FFF78EFF002816DBA368002BF6D0013BE8
:10143000A36063695A1C62611E70636922699342EA
:1014400001D3E3686361E369002B01D0201C984756
:1014500062B6002070BD62B6FCE7C046C046C0461A
:1014600008B53030FFF7D4FF08BDC046C046C046BF
:1014700008B53030014AFFF7CBFF08BDFFFF000081
:10148000F8B54F464646041CC0B4894690461D1C1C
:10149000C76972B60026002F08D0201CB84705E0A7
:1014A000201C291CFFF74CFF002816D1A368002B35
:1014B000F6D0013BA360A3695A1CA2614A461B787F
:1014C0009355A3692269934201D3E368A36162B68D
:1014D0000136B04502D072B6DDE762B6301C0CBCF6
:1014E00090469946F8BDC046C046C046C046C04674
:1014F00008B50C30FFF7C4FF08BDC046C046C04663
:1015000008B50C30014BFFF7BBFF08BDFFFF000023
:1015100038B5041C0D1C72B6C369002B07D0984760
:1015200005E0201C291CFFF70BFF00280DDBA3683A
:10153000002BF6D0A269013BA360531CA361107875
:101540002269934201D3E368A36162B638BDC04605
:1015500008B50C30FFF7DCFF08BDC046C046C046EA
:1015600008B50C300149FFF7D3FF08BDFFFF0000AD
:1015700008B5011C72B60820FFF79AFE62B608BDD6
:1015800008B50120FFF7F4FF72B6024B586A62B645
:1015900080B208BD00040040C046C046C046C046F8
:1015A00008B5EFF30583DB0501D1FFF771F962B6EA
:1015B00008BDC046C046C046C046C046C046C0463C
:1015C000EFF31080C30702D4EFF3058372B67047C0
:1015D00030B5051CC30711D5284A116891423CD08B
:1015E0000023096801339142FBD14C688C4232D010
:1015F0006468013B9442FBD1002B2CD1AB0713D57F
:101600001E4B1C1CDA691C34A2422BD0002312682A
:101610000133A242FBD1516891421CD04968013B81
:10162000A142FBD1002B16D100206B0712D5134A23
:10163000116991421CD00023096901339142FBD109
:101640004C698C4207D06469013B9442FBD1581E1F
:101650008341D8B230BD0120FCE754680023944296
:10166000C6D1CBE7196A141C00239142D6D1DBE71F
:101670004C6900238C42E6D1ECE7C046200F0020E5
:10168000FEE7C046C046C046C046C046C046C0464B
:101690007047C046C046C046C046C046C046C04669
:1016A0000022024B1B605B609A6070473C06002082
:1016B0000022044B1B605B609A60034B1B605B6005
:1016C0009A6070473C0600204C060020C046C04689
:1016D0000022024B1B605B609A6070473C06002052
:1016E0000022024B1B605B609A607047000600207E
:1016F0000022024B1B605B609A607047000600206E
:101700000022024B1B605B609A607047000600205D
:10171000F0B55F4656464D464446F0B48D4DA42183
:10172000AB698D4F9C6883B0631C9846A31C994697
:101730008A4B49009B468A4B42460093381C5B46C5
:10174000FFF73EF9A4235B009A46A421854E864B01
:10175000BA443060490000934A46844B5046FFF734
:101760002FF970608248FFF7B3FBAB6901209968DD
:10177000611A4B425941C9B2FEF742FF002806D018
:1017800003B03CBC90469946A246AB46F0BD6430DF
:10179000FFF7EEFEAB69022099684346591A4B42A7
:1017A0005941C9B2FEF72CFF0028E9D17148FFF773
:1017B0008FFBAB69032099684346591A4B42594144
:1017C000C9B2FEF71DFF0028DAD16430FFF7D0FE62
:1017D000AB69042099684B46591A4B425941C9B22A
:1017E000FEF70EFF0028CBD16248FFF7A1F8AB69E6
:1017F000052099684346591A4B425941C9B2FEF730
:10180000FFFE0028BCD16430FFF7B2FEAB690620B2
:1018100099684346591A4B425941C9B2FEF7F0FE46
:101820000028ADD1FFF79CFAAB6907209968611ACF
:101830004B425941C9B2FEF7E3FE0028A0D1FFF7A1
:10184000FFFBA4214C4B4900009342465B46381CE9
:10185000FFF7B6F8A421494B3060490000934A468F
:10186000424B5046FFF7ACF870604148FFF730FB41
:10187000AB6908209968611A4B425941C9B2FEF719
:10188000BFFE002800D07BE76430FFF771FEAB6934
:10189000092099684346591A4B425941C9B2FEF78B
:1018A000AFFE002800D06BE73248FFF711FBAB69B1
:1018B0000A2099684346591A4B425941C9B2FEF76A
:1018C0009FFE002800D05BE76430FFF751FEAB6954
:1018D0000B2099684B46591A4B425941C9B2FEF741
:1018E0008FFE002800D04BE772B62248FFF760FA5F
:1018F000FEF7CEFF62B6AB690C2099684346591AD1
:101900004B425941C9B2FEF77BFE002800D037E7B1
:101910006430FFF72DFEAB690D2099684346591AD4
:101920004B425941C9B2FEF76BFE002800D027E7B1
:10193000FFF716FAAB690E209968611A4C426141B3
:10194000C9B2FEF75DFE002800D019E7FFF778FB6B
:1019500016E7C046200F0020C006002081190008AD
:10196000F055000890100020F4550008A119000857
:101970004C0600203C060020F8550008FC550008E5
:1019800010B53220FFF7F4FD034C201CFFF7A0FA3E
:10199000201CFEF7CDFF10BD4C060020C046C046FF
:1019A00010B59620FFF7E4FD034C201CFFF790FADA
:1019B000201CFEF7BDFF10BD3C060020C046C046FF
:1019C000F0B54F464646314BC0B498469B6983B04C
:1019D0009C682F4B181C9946FFF77AFAA4212D4DCD
:1019E0002D4F2E4B621C009349003B1C281CFEF718
:1019F000E7FF2B4EA4213060281C2A4B4930A21C43
:101A0000009349003B1CFF30FEF7DAFFA423A4211A
:101A10009B007060E818244BE21C009349003B1CBB
:101A2000FEF7CEFFF623A4219B00B060E8181F4B01
:101A3000221D009349003B1CFEF7C2FFA423A421F2
:101A4000DB00F060E8181A4B621D490000933B1C54
:101A5000FEF7B6FF30614846FEF76AFFFFF7F0FA7F
:101A600043469B6901209968611A4C426141C9B2A1
:101A7000FEF7C6FD002803D102300E49FEF790FDA7
:101A800003B00CBC90469946F0BDC046200F002024
:101A90003C060020C0060020A11B000804560008D8
:101AA00090100020F8550008FC550008F05500087B
:101AB000F455000800560008C046C046C046C0465F
:101AC000F0B54746294B80B4A42798469B69284C1B
:101AD000284E9A68284B82B07F000093391C331C33
:101AE000053A201CFEF76CFF43469B69234D9A681C
:101AF000234B2860391C0093E019331C043AFEF78D
:101B00005FFFA4239B006860E01843469B69391C73
:101B10009A681C4B033A0093331CFEF751FFF623DF
:101B20009B00A860E01843469B69391C9A68164BD5
:101B3000023A0093331CFEF743FFA423DB00E86066
:101B4000E01843469B69391C9A68104B013A009390
:101B5000331CFEF735FF2861FFF772FA0C490120AC
:101B6000FEF71EFD02B004BC9046F0BD200F002021
:101B7000C0060020510600080456000890100020FE
:101B8000F8550008FC550008F0550008F455000809
:101B900000560008C046C046C046C046C046C046C3
:101BA00038B5051C054C201CFFF792F92878FEF784
:101BB0003FFD201CFEF7BCFE38BDC0463C060020A1
:101BC00010B5041C0348FEF75BFF2078FEF730FDDC
:101BD00010BDC04600060020C046C046C046C046F4
:101BE00008B572B68368002B03DDFEF751FE62B6BE
:101BF00008BDFFF785FAF8E7C046C046C046C046B4
:101C000008B53220FFF7B4FC72B60348FFF778FA44
:101C1000FEF73EFE62B608BD00060020C046C04684
:101C2000002310B586B003AC03946460A36072B661
:101C30000021201CFFF77CFAFEF72AFE62B672B67E
:101C4000059B0120591E1943C90FFEF7D9FC002836
:101C500002D062B606B010BD62B6A4212D4B490079
:101C60009B692D489A680094013A2C4BFEF7A8FE18
:101C70002B4B1860201CFEF703FF72B6059B022059
:101C8000591E1943C90FFEF7BBFC0028E1D162B60B
:101C900072B6A368002B35DDFEF7FAFD62B672B6A8
:101CA000059B0320D917C91AC90FFEF7A9FC002804
:101CB000CFD162B672B6059B0420591E4A424A41F2
:101CC000D1B2FEF79DFC0028C3D162B672B6A368FC
:101CD000002B1BDDFEF7DCFD62B672B6059B032010
:101CE000D917C91AC90FFEF78BFC0028B1D162B60B
:101CF00072B6059B0520591E4A424A41D1B2FEF7F1
:101D00007FFCA6E7201CFFF7FBF9C5E7201CFFF7C7
:101D1000F7F9DFE7200F0020C0060020E11B0008D4
:101D200090100020C046C046C046C046C046C046CF
:101D30001D4BA4219B6910B59A68002382B0013223
:101D40004900009319481A4BFEF73AFE194B1860E8
:101D500000F066FC184C01202368191B4A424A41D6
:101D6000D1B2FEF74DFC002801D002B010BDA16831
:101D700002304B425941C9B2FEF742FC0028F4D16F
:101D800000F04EFC23680320191B4A424A41D1B29D
:101D9000FEF736FC0028E8D1A368043059425941C7
:101DA000C9B2FEF72DFCE0E7200F0020C00600209E
:101DB000C11D00089010002000060020C046C0464B
:101DC00010B5044C201CFEF75BFE201CFEF7E0FD66
:101DD00010BDC04600060020C046C046C046C046F2
:101DE00070B582B072B64C4C0021201CFFF788FA07
:101DF00062B60130414241410120C9B2FEF700FC08
:101E0000002801D002B070BD23680230191B4A427D
:101E10004A41D1B2FEF7F4FB0028F3D1A1680330A8
:101E20004B425941C9B2FEF7EBFB0028EAD1A4218D
:101E30003A4B49009B699A680090013A384B3948FF
:101E4000FEF7BEFD384B186072B6FA21201C49001F
:101E5000FFF756FA051C62B6FFF7F2F869426941CE
:101E60000420C9B2FEF7CCFB0028CBD12368053093
:101E7000191B4A424A41D1B2FEF7C2FB0028C1D128
:101E8000A16806304B425941C9B2FEF7B9FB0028A0
:101E9000B8D1FFF775FB72B6244B5E6A62B6412576
:101EA000281CFEF7C5FB72B63221201CFFF728FA6A
:101EB00062B60130414241410720C9B2FEF7A0FBA2
:101EC00000289FD123680830191B4A424A41D1B2E9
:101ED000FEF796FB002800D094E7A16809304B423A
:101EE0005941C9B2FEF78CFB002800D08AE70135C2
:101EF000EDB2462DD4D10A300D49FEF751FB002832
:101F000000D07FE7B6B2311CFC36FA3189B2B2B2EA
:101F10000B30FEF725FB75E700060020200F0020A0
:101F2000011C0008C00600209010002000040040A2
:101F300000560008C046C046C046C046C046C0461F
:101F4000F0B54F464646A421C0B44F4B4F4F98467C
:101F50009B694F4E9A684F4B83B0053200934900FE
:101F60009946381C331CFEF72BFD43464A4DA421ED
:101F70002860381C9B6949309A68484B01320093AD
:101F80004900331CFF30FEF71BFDA4239B00686053
:101F9000F8184346A4219B6949009A68404B0332D4
:101FA0000093331CFEF70CFDF6239B00A860F81885
:101FB0004346A4219B6949009A683A4B0432009336
:101FC000331CFEF7FDFCA423DB00E860F818434651
:101FD000A4219B6949009A68334B02320093331C59
:101FE000FEF7EEFC314C2861201CFEF7D1FC201CD2
:101FF000FEF7CEFC201CFEF7CBFC201CFEF7C8FC35
:10200000201CFEF7C5FCFFF71BF801202849FEF74E
:10201000C7FA002804D003B00CBC90469946F0BD26
:1020200043469B69A4219A684B4605320093381CAD
:102030004900331CFEF7C4FC286072B60225261C3A
:10204000002702E0012D0ED00125A3680133A36013
:10205000002BF7DC3068036833605E60FEF730FD0C
:102060000762012DF0D1FEF713FC62B6FEF7E8FF20
:1020700072B6A168022001394A424A41D1B2FEF744
:10208000BFFA62B6C7E7C046200F0020C006002096
:10209000C11B0008F455000890100020F0550008FE
:1020A000FC550008F85500080456000800060020FA
:1020B00000560008C046C046C046C046C046C0469E
:1020C000F0B54F464646A423C0B4454E5B00994642
:1020D000B369444D9A68444B83B09846434B2C1CDB
:1020E000009349464346043A281CFEF769FCB3694D
:1020F0003F4F9A68493C3F4BFF3C7860494600930C
:10210000053A4346201CFEF75BFCF6239B00386033
:10211000E818B36949469A68374B013A0093434639
:10212000FEF74EFCA4239B003861E818B3694946CA
:102130009A68324B023A00934346FEF741FCF8603E
:1021400072B6B3699A689B239B00E9183033E1505B
:1021500041462933FF33E15029490433E1502949ED
:102160000C33E15002213D3B033AFF3BE250143374
:10217000E1540023244963541F316250B2220121EB
:102180009200A350043AA350204AA154063AA35007
:10219000A82372699B00E6500433E2502B1C291CD3
:1021A0004B441361AD226D31FF3192007135A15066
:1021B000FF350432A55004327361A550BB6062B68E
:1021C000B86872B6FEF77CFC62B6FEF739FF1049BC
:1021D0000120FEF7E5F903B00CBC90469946F0BD2E
:1021E000200F00200808002051060008F8550008BC
:1021F0009010002004560008F4550008F05500081F
:10220000FC550008A1010008AD020000AE0200006C
:1022100000560008C046C046C046C046C046C0463C
:1022200070B5FFF7ADF972B6274D6C6AA4B262B60D
:102230006420FFF79DF9211C6734643189B2A2B292
:102240000120FEF78DF9002800D070BD72B66C6ACF
:10225000A4B262B66430FFF78BF9211C6734643195
:1022600089B2A2B20220FEF77BF90028EDD172B646
:102270006C6AA4B262B6FA208000FFF779F9FA23FB
:102280009B00E118114B89B2E21892B20320FEF7CD
:1022900067F90028D9D172B66C6AA4B262B6261C5E
:1022A0006436B6B272B6696A711A89B2002907D16A
:1022B00062B66734A2B2311C0420FEF751F9C4E7BC
:1022C0000830FEF7F5FFF3E700040040EB030000E1
:1022D000F8B5494EB3699C68651C281CFEF7E8FAFE
:1022E000011B4A424A41071CD1B20120FEF788F97E
:1022F000002800D0F8BDB36902309968691A4A42D3
:102300004A41D1B2FEF77CF90028F3D1381CFEF720
:10231000CFFA291A4B424B410320D9B2FEF770F98C
:102320000028E7D1B36904309968611A4A424A41EA
:10233000D1B2FEF765F90028DCD172B6B2699368B4
:102340000233936062B6B369A71C99680530791AA5
:102350004A424A41D1B2FEF753F90028CAD1281C9B
:10236000FEF7A6FA011B4B424B410620D9B2FEF7FD
:1023700047F90028BED1B36907309968791A4B42F2
:102380004B41D9B2FEF73CF90028B3D1B36908300C
:10239000D96B691A4A424A41D1B2FEF731F9002895
:1023A000A8D1E71C381CFEF783FA291A4B424B418F
:1023B0000920D9B2FEF724F900289BD1B3690A306D
:1023C0009968791A4A424A41D1B2FEF719F90028B0
:1023D00000D08FE7B3690B30D96B791A4B424B4170
:1023E000D9B2FEF70DF9002800D083E772B6B369C1
:1023F0009C60DC6362B67DE7200F0020C046C046CB
:1024000070B5902420262025074B084A9B69E405D7
:102410009A61FA2065834000FFF7AAF8FA20268324
:102420004000FFF7A5F8F4E7200F0020305A00081D
:1024300010B52E48FEF734F9A4204000FEF748F905
:102440002B4C201CFEF70CF92A48FEF729F94420F2
:10245000FEF73EF9201CFEF703F92748FEF720F9A6
:102460001420FEF735F9201CFEF7FAF82348FEF792
:1024700017F90C20FEF72CF9201CFEF7F1F8204884
:10248000FEF70EF90420FEF723F9201CFEF7E8F80A
:102490001C48FEF705F91420FEF71AF9201CFEF778
:1024A000DFF81948FEF7FCF81020FEF711F9201CA0
:1024B000FEF7D6F81548FEF7F3F80820FEF708F9FE
:1024C000201CFEF7CDF81248FEF7EAF82420FEF7AC
:1024D000FFF8201CFEF7C4F80E48FEF7E1F82820AC
:1024E000FEF7F6F8201CFEF7BBF810BD385A0008BE
:1024F000485A0008505A0008605A0008705A0008EC
:10250000805A0008905A0008A05A0008B05A0008E3
:10251000C05A0008D05A0008C046C046C046C0464F
:1025200070B50E1CA421051C49001648FEF7A0FD3D
:10253000041E24D072B6031C134A2533FF33C36034
:102540001A61124A5E611A62022303770023012294
:102550008363436383610E4B856059690361416105
:10256000C563827708615861031C243343620433D6
:102570008362C36242770021FEF7B2F962B6201C83
:1025800070BDC046700E002041470008A101000840
:10259000200F0020C046C046C046C046C046C046C8
:1025A000F8B5184D061C281C0F1CFEF721F9041E57
:1025B00025D072B66B68144A243BC318C3601A61F5
:1025C000124A5F611A62002301210222836343637E
:1025D00083610F4B8177596903614161866002779E
:1025E000C66308615861031C243343620433836269
:1025F000C362427705640021FEF772F962B6201CBF
:10260000F8BDC046140F002041470008A101000892
:10261000200F0020C046C046C046C046C046C04647
:1026200038B572B6124CA3680133A360002B15DDD8
:10263000013BA360002B04DBFEF72AF9002062B601
:1026400038BD0C4B05209D6963682C606B601D6074
:1026500065602C62FEF7E4F9286AF0E720680368F9
:1026600023605C60FEF72CFA00230362A368DFE7B7
:1026700000060020200F0020C046C046C046C046CD
:1026800008B572B6054B1868984205D0026800215B
:102690001A605360FEF724F962B608BD34060020C4
:1026A00008B5064B1868984206D0026853601A6055
:1026B00000230362FEF704FA08BDC046340600207A
:1026C00072B60022024B9B69586B5A6362B6704720
:1026D000200F0020C046C046C046C046C046C04687
:1026E000094B10B59C6972B6636B002B05D1013B99
:1026F00023620A20FEF794F9636B58421840834323
:10270000636362B610BDC046200F0020C046C046BD
:10271000094B10B59C6972B6606B002806D1012385
:102720005B420A302362FEF77BF9606B636B834385
:10273000636362B610BDC046200F00200000000099
:1027400070B5061C72B60D4C201C1C30FEF7D8FD6F
:10275000051E0CD1A268131DA36016606268934227
:1027600008D2201C1030FEF7CBFCFEF791F862B6C1
:10277000281C70BD2368A360F3E7C0460C06002048
:1027800008B50C4B5A6A002A11DD9968013A5A6261
:102790000A1D9A60086059688A4205D21033181CD5
:1027A000FEF7AEFC002008BD1A689A60F6E701202B
:1027B0004042F8E70C060020C046C046C046C0466E
:1027C00070B5061C72B60D4C201C1C30FEF798FD2F
:1027D000051E0CD1E3682268043BE360934209D3F1
:1027E000201C1E601030FEF78BFCFEF751F862B61D
:1027F000281C70BD6368043BE360F1E70C06002011
:1028000008B50D4B5A6A002A12DD013A5A62DA689D
:102810001968043ADA608A4206D310331060181C33
:10282000FEF76EFC002008BD5A68043ADA60F4E74F
:1028300001204042F7E7C0460C060020C046C046D3
:1028400070B5061C72B60D4C201C1030FEF758FDFA
:10285000051C201C002D0ED1E268131D1268E360D8
:1028600032606268934201D32368E3601C30FEF754
:1028700047FCFEF70DF862B6281C70BD0C06002060
:1028800008B50C4B9A69002A11DDD968013A9A61A2
:102890000A1D0968DA60016059688A4201D31A6822
:1028A000DA601C33181CFEF72BFC002001E001202D
:1028B000404208BD0C06002000000000000000009F
:1028C00000220A4B10B51A7072B6094CE368002B4F
:1028D00002D0201CFEF764FCFA21201C8900054A66
:1028E0000023FEF79DFC62B610BDC046960E002088
:1028F000A8100020F1020008C046C046C046C046ED
:10290000A24B0121F0B59A6A444600225F46564622
:102910004D464942F0B499629A62186919611A6188
:10292000D9689B48802401438020D960DA60D96946
:10293000400501439748D961016864002143016063
:10294000C021186A89000140802085B08000814242
:1029500003D08021490219621A6280208B4B000249
:102960001A6A024207D18022196A92001143196241
:102970001A6A02431A62BC22844CD20363698649F4
:102980001343902263610023D20553609160834911
:102990000127D16082498026516188214901116255
:1029A000AA21090351627F497F4811607F4A80490B
:1029B0007F4253607F4D9760D160506113625362D4
:1029C00016607D4A53609760D56050611362536210
:1029D00013607A4A53609760D160506178491362FE
:1029E00053621360774A53609360D1605061136201
:1029F000754953621360754A744D02C273496B6125
:102A00004A60012290460A1C414611720C32EA606B
:102A10002A612A1C291C5432AA616A622A62103275
:102A2000EA61CA638A644A6410320A64684AAB6223
:102A3000ED62CA643035674A0D634D6310254A67FD
:102A4000654A8D638A670222E56909651543E56178
:102A5000624DA9680A434146AA60614A614D956288
:102A6000D06293615363D360536051611160D0228F
:102A70005D4D9200AE508022013652025B48FF3617
:102A8000AA512A60026A94466146594A0A40026283
:102A900058485949021C1C32C2610262574A878455
:102AA00007320837BA430A60554A0060BA43554FA7
:102AB00040603A60544A554F93601760171C1037B6
:102AC0008360C3840021D3601761576149279361F4
:102AD0004022C155414642638266071C0A32815436
:102AE000021C50372C320765071C0261426182616B
:102AF00048225437436603664364C06300644765F5
:102B00008765815462B64249826970309161009351
:102B1000D82101223F4BFDF753FF72B62B4B1B7A96
:102B2000012B0CD18022E36992021343E361DC2381
:102B3000C0229B00EA5080235B05AB512B6096219D
:102B4000224B09025C6F9B6F181C0293FDF738FB48
:102B5000314B80B2A08163600123A3602E23FF3339
:102B600023602F3BFF3B194A23620333137262B683
:102B70000023A42100932948294B49004022FDF756
:102B80001FFF284B284C294F994655E00010024062
:102B9000FFFFBFFF007000405FF7FFFF05511564A6
:102BA000DFFF0000A004802AFFFF000000040048AF
:102BB000555555555555555100080048000C0048CD
:102BC000505555550014004800570008980E002035
:102BD0000103000800440040006CDC020058014082
:102BE000000400407FBB000000E100E000ED00E0D9
:102BF000FFFF00FF200F0020900E00206811002032
:102C000000400020CC10002070100020610300085C
:102C100090560008F103000840400000280D0020F5
:102C2000012400089010002068100020A41000204B
:102C3000FA204000FEF79CFC8022A24B92011B6907
:102C40001342F5D1A04BA1482360FDF709FDA04830
:102C5000FDF706FD9F48FDF703FD2A219E4D2068E4
:102C6000013503689B68984729780029F7D19B486C
:102C7000FDF7F6FC2A219A4D2068013503689B6810
:102C8000984729780029F7D19648FDF7E9FC2A21D1
:102C9000954D2068013503689B689847297800297D
:102CA000F7D19248FDF7DCFC2A21914D20680135CF
:102CB00003689B68984729780029F7D18D48FDF76C
:102CC000CFFC2A218C4D2068013503689B6898470A
:102CD00029780029F7D18948FDF7C2FC2A21884DBF
:102CE0002068013503689B68984729780029F7D147
:102CF0008448FDF7B5FC2A21834D2068013503681F
:102D00009B68984729780029F7D12A257F48FDF745
:102D1000A7FC291C7E4E2068013603689B689847F3
:102D200031780029F7D10D1C7A48FDF799FC6748E6
:102D3000FDF796FC784B1D70784B9B46784B0293C1
:102D4000002398460393039B0133039300239A4681
:102D500053469E00029B9C4666443368002B00D17C
:102D600088E0FDF7CDFB2D216E4D2068013503680D
:102D70009B68984729780029F7D10398FDF7A8FCAC
:102D800020682E2103689B68984701239C46E244F3
:102D90005046FDF79DFC2021634D206801350368F6
:102DA0009B68984729780029F7D133681D682978EE
:102DB000002907D02068013503689B689847297867
:102DC0000029F7D15948FDF74BFCC820FEF7D0FB8E
:102DD0004246574B35683B60564B1A704B4642464D
:102DE0001A605A609A60DA601A616B68002B00D032
:102DF0009847EB689847AB68002B00D09847FEF7E0
:102E00001FF94C4B1B78002B54D02D214A4D2068C4
:102E1000013503689B68984729780029F7D1474B0B
:102E20001868FDF755FC2021454D206801350368E1
:102E30009B68984729780029F7D13D4D3B68AB4204
:102E400009D92068013503686A1E9B681178984784
:102E50003B689D42F5D33B48FDF702FC5B461B688F
:102E6000029353469E00029B9C4666443368002BA7
:102E700000D076E704339C46E3445B461B6802932C
:102E8000002B00D05FE7FDF73BFB1048FDF7E8FBA8
:102E900046212D4D2068013503689B6898472978A5
:102EA0000029F7D11C4B1B78002B07D12748FDF7D1
:102EB000D7FBBDE62648FDF7D3FB49E72548FDF7DC
:102EC000CFFBB5E600080048980E002060620008BD
:102ED000C05B0008DC5B0008E05A0008045C0008E6
:102EE000F45A00080C5C0008085B0008245C000829
:102EF0001C5B00086C5C0008305B0008745C000818
:102F0000445B0008805C0008585B0008985C00087F
:102F10006C5B0008C45C0008940E00209058000808
:102F200020580008805B0008905B0008E05B000808
:102F3000BC100020950E0020945B0008B80600200D
:102F4000AC5B0008E45B0008B05B0008F45B0008C1
:102F5000E85B0008FC5B0008C046C046C046C046AF
:102F6000094B0A4A1A60DA609A6014325A601A1CD5
:102F70001C32DA611A6205225A621A1C10321A6176
:102F80005A6100229A6170470C060020C00600209A
:102F90000022064B1B605B60054B1B605B609A6008
:102FA000044B1B605B609A607047C046340600208B
:102FB0003C0600204C060020C046C046C046C04625
:102FC0000022044B1B605B60034B1B605B609A60DC
:102FD0007047C046340600203C060020C046C0466C
:102FE0000022044B1B605B60034B1B605B609A60BC
:102FF0007047C046340600203C060020C046C0464C
:1030000070B582B072B6164D01206B6A591F4A42E4
:103010004A41D1B2FDF7F4FA002800D0F9E162B6D6
:1030200042241049201CFFF78BFB41424141022002
:10303000C9B2FDF7E5FA00280FD10134462CF0D1D2
:1030400008494130FFF7BCFB414241410320C9B26E
:10305000FDF7D6FA002800D1DDE102B070BDC04610
:103060000C060020FFFF0000D44E0C20311CFDF7A1
:1030700097FA0028F1D1D2494730FFF761FB41426E
:1030800041410D20C9B2FDF7BBFA0028E5D1CC497A
:1030900001A8FFF7D5FB414241410E20C9B2FDF71F
:1030A000AFFA0028D9D12B68AA680F30991A4A4282
:1030B0004A41D1B2FDF7A4FA0028CED12B68EA68C4
:1030C0001030991A4A424A41D1B2FDF799FA0028C4
:1030D000C3D1012101A8FFF7B3FB411C4B424B4177
:1030E0001120D9B2FDF78CFA0028B6D172B601A82A
:1030F000FFF7C6FB62B6411C4B424B411220D9B2CE
:10310000FDF77EFA0028A8D172B66B6A1330591FFA
:103110004A424A41D1B2FDF773FA002800D078E163
:1031200062B672B6A96914204B425941C9B2FDF783
:1031300067FA002800D06CE162B672B6EB68AA6844
:103140001520991A4A424A41D1B2FDF759FA00288E
:1031500000D05EE162B672B64120FFF711FB41423A
:1031600041411620C9B2FDF74BFA002800D074E7A0
:103170004230FFF705FB414241411720C9B2FDF73C
:103180003FFA002800D068E74330FFF7F9FA4142E0
:1031900041411820C9B2FDF733FA002800D05CE79E
:1031A0004430FFF7EDFA414241411920C9B2FDF721
:1031B00027FA002800D050E74530FFF7E1FA62B661
:1031C000414241411A20C9B2FDF71AFA002800D045
:1031D00043E7EB68AA681B30991A4A424A41D1B2C8
:1031E000FDF70EFA002800D037E7052472B601A8D3
:1031F000FFF746FB62B6414241411C20C9B2FDF7D0
:10320000FFF9002800D028E7019B013CD8B2FDF768
:103210000FFA002CEAD11D20311CFDF7C1F900285E
:1032200000D01AE772B66B6A1E30591F4A424A41F3
:10323000D1B2FDF7E5F9002800D0EAE062B672B637
:10324000A9691F204B425941C9B2FDF7D9F900289D
:1032500000D0DEE062B6EB68AA682020991A4A42E4
:103260004A41D1B2FDF7CCF9002800D0F5E672B69C
:103270004530FFF7C5FA414241412120C9B2FDF76F
:10328000BFF9002800D0E8E64430FFF7B9FA414220
:1032900041412220C9B2FDF7B3F9002800D0DCE695
:1032A0004330FFF7ADFA414241412320C9B2FDF757
:1032B000A7F9002800D0D0E64230FFF7A1FA41423A
:1032C00041412420C9B2FDF79BF9002800D0C4E693
:1032D0004130FFF795FA62B6414241412520C9B21B
:1032E000FDF78EF9002800D0B7E6EB68AA68263013
:1032F000991A4A424A41D1B2FDF782F9002800D01A
:10330000ABE6052472B601A8FFF7BAFA62B64142ED
:1033100041412720C9B2FDF773F9002800D09CE68F
:10332000019B013CD8B2FDF783F9002CEAD128209B
:10333000311CFDF735F9002800D08EE672B66B6AB5
:103340002930591F4A424A41D1B2FDF759F90028A4
:103350005FD162B672B6A9692A204B425941C9B2FF
:10336000FDF74EF9002854D162B6EB68AA682B200D
:10337000991A4A424A41D1B2FDF742F9002800D0D9
:103380006BE672B629686B68A960E960591A891002
:103390000C48FDF7CDFE0C48211CFDF7C9FEFDF7DA
:1033A00077FA62B672B66B6A2C20591F4A424A41BC
:1033B000D1B2FDF725F900282BD107E0005600080F
:1033C000FFFF0000280600201C06002062B672B62F
:1033D000A9692D204B425941C9B2FDF711F90028C6
:1033E00017D162B672B62B68AA682E20991A4A4283
:1033F0004A41D1B2FDF704F900280AD162B672B68B
:103400002B68E9682F20591A4A424A41D1B2FDF788
:10341000F7F862B621E601215830FFF791F9013043
:10342000414241410420C9B2FDF7EAF8002800D02A
:1034300013E672B65830FFF7A3F962B60130414285
:1034400041410520C9B2FDF7DBF8002800D004E6B1
:1034500001215830FFF7B4F9411C4B424B41062083
:10346000D9B2FDF7CDF8002800D0F6E572B6583095
:10347000FFF7C6F962B6411C4B424B410720D9B257
:10348000FDF7BEF8002800D0E7E572B6696A08309B
:103490004B425941C9B2FDF7B3F80028B9D162B621
:1034A00072B6AB690920591F4A424A41D1B2FDF7B1
:1034B000A7F80028ADD162B672B6EB68AA680A20F8
:1034C000991A4A424A41D1B2FDF79AF80028A0D190
:1034D00062B6052407E0019B013CD8B2FDF7A8F8CD
:1034E000002C00D1C0E5064901A8FFF7A9F9414227
:1034F00041410B20C9B2FDF783F80028EBD0ACE5C1
:10350000FFFF0000C046C046C046C046C046C04699
:1035100010B5041C4121FDF73BFB201C4221FDF7A7
:1035200037FB201C4321FDF733FB10BDC046C046CE
:10353000A42110B5194B82B09B6949009A681848BC
:1035400001320093174BFDF73BFA174B1860FDF75C
:1035500077FA046B72B6211CFDF7C2F962B6E0B2CD
:10356000FDF766F8FDF76CFA046B72B6211CFDF7E7
:10357000B7F962B6E0B2FDF75BF8FDF761FA046BEC
:1035800072B6211CFDF7ACF962B6E0B2FDF750F857
:1035900006490120FDF704F802B010BD200F0020FD
:1035A000C00600201135000890100020E0610008DE
:1035B000F0B5A427174B184D9B6983B09C68174B37
:1035C0007F00621C0093391C281C154BFDF7F8F98D
:1035D000144E154B3060A21C0093391CE819134B94
:1035E000FDF7EEF9A4239B007060E818104BE21C75
:1035F000391C00930F4BFDF7E3F9B060FFF740F87B
:10360000FFF73EF8FDF71CFD0B490120FCF7C8FF52
:1036100003B0F0BD200F0020C0060020F4550008C4
:103620006136000890100020FC550008F1360008B3
:10363000F055000841360008E0610008C046C04669
:1036400038B5051C054C201CFDF742FC2878FCF71A
:10365000EFFF201CFDF76CF938BDC0464C0600207A
:10366000F0B547461D4D80B48046281CFDF730FC60
:103670001B4E301CFDF72CFC72B61A4CA3699F6BD5
:10368000381CFDF795FB1849A2690B1C116204E078
:10369000986884469068844502D31B688B42F7D1B2
:1036A00059681360516007200A605A60FDF7B8F945
:1036B000A3691B6A013302D0381CFDF7A1FB62B677
:1036C00043461878FCF7B4FF301CFDF731F9281C8D
:1036D000FDF72EF904BC9046F0BDC0464C06002014
:1036E0003C060020200F002034060020C046C046C3
:1036F000F8B5154D071C281CFDF7EAFB72B6134BF5
:103700009C69A66B301CFDF753FB114A2262131C07
:1037100003E09968A068814202D31B689342F8D104
:103720005A6823606260072014605C60FDF778F9D6
:10373000301CFDF765FB62B63878FCF779FF281C72
:10374000FDF7F6F8F8BDC0463C060020200F00202B
:1037500034060020C046C046C046C046C046C046EB
:10376000A421F0B52D4B2E4D9B692E4F9C682E4BFE
:1037700083B0621C0093281C3B1C4900FDF720F914
:103780002A4EA4213060281C294B4930A21C0093EA
:1037900049003B1CFF30FDF713F9A423A4219B0033
:1037A0007060E818234BE21C009349003B1CFDF7B6
:1037B00007F9F623A4219B00B060E8181E4B221DD8
:1037C000009349003B1CFDF7FBF8A423A421DB0078
:1037D000F060E818194B621D009349003B1CFDF78F
:1037E000EFF8306172B60225154C6D422068A04298
:1037F00008D0036823605C60FDF762F90562206809
:10380000A042F6D1FDF744F862B6FDF719FC0D4968
:103810000120FCF7C5FE03B0F0BDC046200F00201C
:10382000C0060020F1360008045600089010002061
:10383000F8550008FC550008F0550008F45500083C
:103840003406002000560008C046C046C046C046A8
:103850002C4BF0B59B6947469C68A4235B009846B7
:1038600080B4294D294F2A4B82B0621C00934146F7
:103870003B1C281CFDF7A4F8264E274B3060281C63
:10388000A21C009341463B1C4044FDF799F8A42339
:103890009B007060E818214BE21C009341463B1CE2
:1038A000FDF78EF8F6239B00B060E8181C4B221D34
:1038B000009341463B1CFDF783F8A423DB00F06036
:1038C000E818184B621D009341463B1CFDF778F841
:1038D000306172B6FEF7E4FEFEF7E2FEFEF7E0FEB0
:1038E000FEF7DEFEFEF7DCFEFCF7D2FF62B6FDF768
:1038F000A7FB0D490120FCF753FE02B004BC904623
:10390000F0BDC046200F0020C0060020F1360008A0
:103910000456000890100020F8550008FC550008D7
:10392000F0550008F455000800560008C046C0468F
:1039300070B5314DAB699E6872B6304C0021A368FA
:10394000002B4BD062B60120FCF75AFE011E00D0BE
:1039500070BD72B6A368002B47D0012162B6022069
:10396000FCF74EFE0028F3D172B6201CFDF720FABA
:1039700062B623680320191B4A424A41D1B2FCF7C0
:103980003FFE0028E4D1A16804304B425941C9B23E
:10399000FCF736FE0028DBD1AB6905309968711A57
:1039A0004B424B41D9B2FCF72BFE0028D0D1201C52
:1039B000FDF78EFAFDF7D4F923680620191B4A4259
:1039C0004A41D1B2FCF71CFE0028C1D1A3680730E0
:1039D00059425941C9B2FCF713FEB9E7AB6901314D
:1039E0009A6BA360E2609C63ACE7AB699A6BA360DF
:1039F000E2609C63B2E7C046200F00203C06002036
:103A00000022024B1B605B609A607047E41000204C
:103A10000122024B1B605B609A60704728110020F6
:103A20007047C046C046C046C046C046C046C046B5
:103A30000022024B1B605B609A60704728110020D7
:103A400072B672B672B662B67047C046C046C0461D
:103A500070B50025FDF794FDFEF732FF134C144EB0
:103A6000201CFDF735FA201CFCF762FF201CFDF737
:103A70002FFA201CFCF75CFF201CFDF729FA201C04
:103A8000FCF756FF201CFDF723FA201CFCF750FF23
:103A900033780135002BE3D00648FCF701FEA8007F
:103AA000FCF716FE0448FCF7DBFD70BDE4100020B7
:103AB000960E0020F061000800620008C046C04673
:103AC00070B50025FDF75CFDFEF7FAFE134C144EB1
:103AD000201CFCF7D5FF201CFCF75AFF201CFCF72C
:103AE000CFFF201CFCF754FF201CFCF7C9FF201C53
:103AF000FCF74EFF201CFCF7C3FF201CFCF748FF1F
:103B000033780135002BE3D00648FCF7C9FDA80047
:103B1000FCF7DEFD0448FCF7A3FD70BD2811002072
:103B2000960E0020F061000810620008C046C046F2
:103B300070B5074CA3695B7F5B0708D40425054E6D
:103B4000301CFCF79DFFA3695B7F1D42F8D070BD60
:103B5000200F002028110020C046C046C046C046A5
:103B6000F0B5474680B4FDF70BFDFEF7A9FE154BF7
:103B700000249846144F154E154D72B60121381C7D
:103B8000321C0023FDF74CFB1249321C0023281C79
:103B9000FDF746FB381CFDF703FB281CFDF700FB77
:103BA00062B643461B780134002BE6D00A48FCF786
:103BB00077FD6000FCF78CFD0848FCF751FD04BC64
:103BC0009046F0BD960E0020D0100020213A00084B
:103BD0003411002010270000F06100082062000866
:103BE000002270B50025204C204B2460E360A361C7
:103BF000636164601033A2602361E2612262FDF7B9
:103C0000BFFCFEF75DFE1A4E72B60021201CFCF7C9
:103C100067FF201C0121FCF763FF201C0221FCF739
:103C20005FFF201C0321FCF75BFF62B61149201CDB
:103C3000FDF76EFC0F49201CFDF76AFC0D49201CA6
:103C4000FDF766FC201C0B49FDF762FC337801355B
:103C5000002BD9D00848FCF723FDA800FCF738FD5D
:103C60000648FCF7FDFC70BD04110020F410002094
:103C7000960E0020FFFF0000F06100082C62000893
:103C8000F0B54F4646460023C0B485B00393FDF718
:103C900077FCA4235B0098462C4B2D4C99469B69DE
:103CA0002C4F9A6803AE41463B1C013A0096201CFB
:103CB000FCF786FE4B46284D9B692860201C9A68BD
:103CC00041463B1C4044013A0096FCF779FEA42390
:103CD0009B006860E0184B469B6941469A683B1C14
:103CE000013A0096FCF76CFEF6239B00A860E018F2
:103CF0004B469B6941469A683B1C013A0096FCF78B
:103D00005FFEA423DB00E860E0184B469B69414658
:103D10009A683B1C013A0096FCF752FE2861FA2093
:103D20008000FDF725FCFCF703FCFDF789F90B4843
:103D3000FCF7B6FC0398FCF7CBFC0948FCF790FCB9
:103D400005B00CBC90469946F0BDC046200F00203F
:103D5000C0060020F13D000890100020F06100082E
:103D600038620008C046C046C046C046C046C0468D
:103D7000F0B54F464646C0B4144B83B09B6900244F
:103D80009D68FDF7FDFBFEF79BFD114B0026994654
:103D9000104B114F98460135A421434600964846E2
:103DA00049002A1CFCF70CFE3B780134002BF3D0B1
:103DB0000A48FCF775FC201CFCF78AFC0848FCF755
:103DC0004FFC03B00CBC90469946F0BD200F00207C
:103DD000C006002001460008960E0020F061000891
:103DE00044620008C046C046C046C046C046C04601
:103DF00070B5041C0425084EFCF71AFDFCF718FDED
:103E0000FCF716FDFCF714FD236804332360B36947
:103E10005B7F1D42F0D070BD200F0020C046C04621
:103E2000F0B54746A42180B400273E4B3E4C98464F
:103E30009B693E4E9A6882B0331C0532201C4900B3
:103E40000097FCF7BDFD4346394DA4212860201C96
:103E50009B6949309A684900331C0432FF3000974F
:103E6000FCF7AEFDA4239B006860E0184346A42144
:103E70009B6949009A68331C03320097FCF7A0FD48
:103E8000F6239B00A860E0184346A4219B694900E3
:103E90009A68331C02320097FCF792FDA423DB00E2
:103EA000E860E0184346A4219B6949009A68331CE6
:103EB00001320097FCF784FD00242861FDF760FBC8
:103EC000FEF7FEFC1B4D1C4E72B60021281CFDF7B0
:103ED0002FF9FCF7DDFC62B633780134002BF3D008
:103EE000FCF726FB72B60021281CFDF721F9FCF730
:103EF000CFFC62B6FDF7A4F81048FCF7D1FB201CFC
:103F0000FCF7E6FB0E48FCF7CBFB60000019400015
:103F1000FCF7DEFB0B48FCF7A3FB02B004BC9046A9
:103F2000F0BDC046200F0020C0060020313B000835
:103F30009010002028110020960E0020F06100084B
:103F40005062000838620008C046C046C046C046FD
:103F5000F0B54F464646C0B4154B83B09B6900246C
:103F60009D68FDF70DFBFEF7ABFC124B0026994652
:103F7000114B124F9846013DA421434649002A1C8B
:103F800000964846FCF71CFDFDF742F83B780134EB
:103F9000002BF1D00A48FCF783FB201CFCF798FBB0
:103FA0000848FCF75DFB03B00CBC90469946F0BD99
:103FB000200F0020C006002001460008960E0020B9
:103FC000F061000844620008C046C046C046C046D2
:103FD000204BA4219B6970B59A68002382B00132FE
:103FE000490000931C481D4BFCF7EAFC00251C4BC4
:103FF000041C1860FDF7C4FAFEF762FC194E72B695
:104000000021201CFCF76CFC201C0021FCF768FC44
:10401000201C0021FCF764FC201C0021FCF760FC44
:1040200062B633780435002BE9D072B60121201C2A
:104030004942FCF755FC62B6FDF702F80A48FCF766
:104040002FFB6800FCF744FB0848FCF709FB02B0B3
:1040500070BDC046200F0020C0060020714000083F
:1040600090100020960E0020F061000838620008D1
:10407000054B10B59C6972B60320FCF7D1FC236A8E
:10408000002BF9D062B610BD200F0020C046C046FC
:1040900010B5FCF7D5FC046B72B6211CFCF720FCB4
:1040A00062B6002CF5D110BDC046C046C046C04621
:1040B00070B50024051CFDF763FAFEF701FC074EFE
:1040C000281C0121FCF764FD33780134002BF7D064
:1040D000281C0021FCF75CFD201C70BD960E002002
:1040E000F0B54F464646304BC0B4A426002798464C
:1040F0009B692E4C9A6883B07600311C0132009780
:10410000201C2B4BFCF75CFC43469B69294D9A68AD
:10411000294B2860311CA019023A00979946FCF7F8
:104120004FFCA4239B006860E01843469B69311C48
:104130009A684B46033A0097FCF742FCF6239B0033
:10414000A860E01843469B69311C9A684B46043AC4
:104150000097FCF735FCA423DB00E860E018434639
:104160009B69311C9A684B46053A0097FCF728FC7E
:1041700028612868FFF79CFF041CFCF761FF0F48CB
:10418000FCF78EFA201CFCF7A3FA0D48FCF788FA1E
:104190006000FCF79DFA0B48FCF762FA03B00CBC18
:1041A00090469946F0BDC046200F0020C006002072
:1041B000914000089010002001460008F0610008BE
:1041C0006462000838620008C046C046C046C04667
:1041D000124BA4219B6910B59A68002382B001326A
:1041E000490000930E480F4BFCF7EAFB0E4B18609A
:1041F000FFF75EFF041CFCF723FF0C48FCF750FAA6
:10420000201CFCF765FA0A48FCF74AFA6000FCF744
:104210005FFA0848FCF724FA02B010BD200F002016
:10422000C00600209140000890100020F0610008B6
:104230006462000838620008C046C046C046C046F6
:10424000124BA4219B6910B59A68002382B0013AF1
:10425000490000930E480F4BFCF7B2FB0E4B186061
:10426000FFF726FF041CFCF7EBFE0C48FCF718FADE
:10427000201CFCF72DFA0A48FCF712FA6000FCF744
:1042800027FA0848FCF7ECF902B010BD200F002017
:10429000C00600209140000890100020F061000846
:1042A0006462000838620008C046C046C046C04686
:1042B00010B572B60120FDF78BF962B6012460409B
:1042C000C1B20120FCF79CF9002800D010BD72B6E5
:1042D0000230FDF77DF962B66040C1B20220FCF702
:1042E0008FF90028F2D172B60430FDF771F962B689
:1042F0006040C1B20320FCF783F90028E6D172B612
:104300000830FDF765F962B64440E1B20420FCF7DD
:1043100077F9DBE7C046C046C046C046C046C04647
:1043200010B586B0FDF74CF9C30701D4FDF738F995
:1043300072B6FDF745F9C30701D4FDF731F962B64E
:10434000EFF31083DB0700D472B6EFF31083DB07C3
:1043500000D472B662B672B6EFF31083DB0700D5F5
:1043600062B6EFF31083DB0700D562B60023049337
:1043700072B6049B01AC002B02D0201CFCF710FF8E
:10438000201C0121094A0023FCF74AFF62B60A20DB
:10439000FDF7EEF872B6049962B64B42594101201E
:1043A000C9B2FCF72DF906B010BDC046B1430008F4
:1043B00008B572B662B672B6FDF702F9C30701D44A
:1043C000FDF7EEF862B608BDC046C046C046C0461E
:1043D00008B503480021C822FDF71AF808BDC046F9
:1043E0005C060020C046C046C046C046C046C04627
:1043F00070B582B072B67B4D00216B69AA69934299
:1044000000D1E4E00120FCF7FBF800282DD162B6D2
:104410004124211C0134281C734AE4B2FCF7F8FF44
:10442000452CF6D172B6A96802204B425941C9B257
:10443000FCF7E6F8061E18D162B6042472B6281CF2
:10444000FCF77EFB62B6C0B2013CFCF7F1F8002C31
:10445000F4D172B66B69AA69934200D1BCE0032023
:10446000311CFCF7CDF8002802D062B602B070BD56
:1044700062B604205D49FCF793F80028F6D172B6C5
:10448000281CFCF75DFB0330414241410520C9B2C5
:10449000FCF7B6F80028E8D162B6554C0023211C81
:1044A000281C0822FCF764FF011F4B424B410620E9
:1044B000D9B2FCF7A5F80028D8D172B6A9680730A0
:1044C0004B425941C9B2FCF79BF80028CDD162B6E6
:1044D000231CA421474A493B9269FF3B926849004B
:1044E00000900132181C444BFCF76AFA434B1860E9
:1044F00072B62B69EA680820991AAB68C91A0439A0
:104500004A424A41D1B2FCF77BF80028ADD162B6ED
:10451000FCF796FD72B60226EB682A692868AB6143
:104520006B61D31AAB607642A84208D003685D6025
:104530002B600662FCF7C4FA2868A842F6D162B67E
:1045400072B62B69EA680920991AAB68C91A4A42FF
:104550004A41D1B2FCF754F8002800D085E762B692
:104560000222211C0023281CFCF702FF811E4B4263
:104570004B410A20D9B2FCF743F8031E00D075E77F
:10458000211C281C0222FCF7F3FE811E4B424B41EA
:104590000B20D9B2FCF734F8002800D066E772B6D9
:1045A000A9680C304B425941C9B2FCF729F8011EE9
:1045B00000D05AE762B60A22281CFCF729FF411CEA
:1045C0004B424B410D20D9B2FCF71AF84EE7A968CF
:1045D0004B1E9941C9B215E7AE68731E9E41F6B2F3
:1045E0003DE7C0465C060020FFFF00007062000847
:1045F00008080020200F0020D14300089010002060
:1046000008B5FCF7ADFD08BDC046C046C046C04673
:104610007047C046C046C046C046C046C046C046B9
:104620000422074B9A60074A1B60DA609A615A615C
:1046300004321A61044A5B60DA6100221A62704730
:104640005C060020C006002011460008C046C04697
:104650000021074B074A1B60DA609A615A610432F5
:104660001A61054A5B609960DA6119627047C04659
:104670008C060020C006002011460008C046C04637
:10468000CC200022064B0749C00099600A604860B0
:10469000191C10311A60DA60196159619A6170470A
:1046A000700E0020C0060020C046C046C046C0466E
:1046B000A4210022024B49001A6059609A60704799
:1046C000140F0020C046C046C046C046C046C04683
:1046D000CC200022064B0749C00099600A60486060
:1046E000191C10311A60DA60196159619A617047BA
:1046F000700E0020C0060020C046C046C046C0461E
:1047000000207047C046C046C046C046C046C046AE
:10471000A4210022024B49001A6059609A60704738
:1047200080060020C046C046C046C046C046C046BF
:1047300008B50248C821FCF7EBFE08BD8C06002036
:1047400008B50078FBF774FF08BDC046C046C046F8
:1047500070B582B072B67F4D0120A9684B425941B5
:10476000C9B2FBF74DFF061E17D162B672B64124DF
:10477000211C0134281CE4B2FCF7B2F9452CF7D116
:1047800062B672B6AB696A69934200D1DCE002207E
:10479000311CFBF735FF002802D062B602B070BDB5
:1047A00062B672B60021281CFCF79AF90430414227
:1047B00041410320C9B2FBF723FF0028EDD162B6C7
:1047C00004246549281CFCF7A3FE013CC0B2FBF79A
:1047D0002FFF002CF5D172B6A96804204B42594135
:1047E000C9B2FBF70DFF0028D7D162B605205B499F
:1047F000FBF7D6FE0028D1D172B64124211C01342A
:10480000281CE4B2FCF76CF9452CF7D162B6544E83
:104810000023311C281C0822FCF732FE011F4B42EA
:104820004B410620D9B2FBF7EBFE0028B6D172B699
:10483000A96807304B425941C9B2FBF7E1FE002895
:10484000ABD162B672B64124211C0134281CE4B2FB
:10485000FCF746F9452CF7D162B60023311C281C21
:104860000222FCF70DFE811E4B424B410820D9B2BB
:10487000FBF7C6FE002800D090E7311C0023281C5F
:104880000222FCF7FDFD811E4B424B410920D9B2AB
:10489000FBF7B6FE002800D080E772B6A9680A30A0
:1048A0004B425941C9B2FBF7ABFE041E00D074E77E
:1048B00062B672B60021281CFCF712F9AC60022423
:1048C000EB682868AB616B616442A84208D003685A
:1048D0005D602B600462FCF7F3F82868A842F6D10B
:1048E00062B672B6A9680B204B425941C9B2FBF7B8
:1048F00087FE002800D050E762B6A421194B49007A
:104900009B699A6800900132174B1848FCF758F8D9
:10491000174B186072B6A9680C204B425941C9B2B6
:10492000FBF76EFE002800D037E762B6FCF788FB85
:10493000281C0A21FCF7ECFD411C4B424B410D2089
:10494000D9B2FBF75DFE29E7AE68731E9E41F6B251
:104950001DE7C0468C060020FFFF000070620008C3
:1049600008080020200F002031470008C006002062
:1049700090100020C046C046C046C046C046C04653
:10498000F8B5071C72B60E4E3069837F013383770A
:1049900062B6002500E0201CC31B5A4253411D4350
:1049A00072B60469B44209D0A37F0133A37762B61B
:1049B000FCF706FB002CEED1281CF8BD0024F6E71E
:1049C000200F0020C046C046C046C046C046C04674
:1049D000444B10B59B69444998680138FDF7A0FD28
:1049E000817F041C01394B4259410120C9B2FBF7B8
:1049F00007FE002800D010BD72B6A37F0133A37755
:104A000062B6A17F023002394B425941C9B2FBF76D
:104A1000F7FD0028EFD1201CFCF7D2FAA17F03207C
:104A200001394B425941C9B2FBF7EAFD0028E2D1F6
:104A3000201CFFF7A5FF011C0420FBF7E1FD002867
:104A4000D9D1201CFFF79CFF011C0520FBF7D8FDE6
:104A50000028D0D1201CFCF7B3FAA17F06204B42DE
:104A60005941C9B2FBF7CCFD0028C4D1217F0730E2
:104A70004B425941C9B2FBF7C3FD0028BBD1201CF2
:104A8000FFF77EFF011C0820FBF7BAFD0028B2D11A
:104A9000201CFFF775FF011C0920FBF7B1FD002862
:104AA000A9D13230FCF764FD217F0A200F394B4237
:104AB0005941C9B2FBF7A4FD00289CD1201CFFF787
:104AC0005FFF011C0B20FBF79BFD002800D092E745
:104AD000201CFFF755FF01214140C9B20C20FBF714
:104AE0008FFD88E7200F0020F4550008C046C0461F
:104AF000052238B52D4B2E4C72B621682360196003
:104B000062B66168013A8C466344002AF4D10525F7
:104B1000201CFBF76DFE411E8841C1B20120FBF74E
:104B20006FFD002831D1013D002DF1D1201CFBF794
:104B30005FFE414241410220C9B2FBF761FD0028FE
:104B400023D11C4A535972B621681960236062B69A
:104B50000435142DF6D10F3D201CFBF749FE411EF4
:104B60008841C1B20320FBF74BFD00280DD1013D68
:104B7000002DF1D1201CFBF73BFE414241410420B6
:104B8000C9B2FBF73DFD002800D038BD102363609B
:104B9000094B201C2560A360FBF72AFE41424141DE
:104BA0000520C9B2FBF72CFDEFE7C046C006002088
:104BB000800600208062000801470008C046C04609
:104BC000324B70B59B6932499E680023314CCA58FC
:104BD00072B620681060226062B60433102BF6D1E2
:104BE0002D49701EFDF7DCFC2C4D2D492860B01EB0
:104BF000FDF7D6FC2B496860F01EFDF7D1FC2A4971
:104C0000A860301FFDF7CCFC2849E860701FFDF755
:104C1000C7FC2B682861002B11D06B68002B0ED0CD
:104C2000AB68002B0BD0EB68002B08D04142414110
:104C30000120C9B2FBF7E4FC002806D070BD0021BA
:104C40000120FBF7DDFC0028F8D1FCF7F9F9022080
:104C50001749FBF7A5FC0028F0D10425201CFBF721
:104C6000C7FD411E8841C1B20320FBF7C9FC0028E3
:104C7000E4D1013D002DF1D1201CFBF7B9FD4142EB
:104C800041410420C9B2FBF7BBFCD7E7200F00204D
:104C900080620008140F0020F455000890100020D6
:104CA000F0550008FC550008F855000804560008A7
:104CB00070620008C046C046C046C046C046C046F6
:104CC000F0B52F4B2F4E9B6983B09D6801A9301C16
:104CD000FCF706F92C49681EFDF722FC2B4C2C49E9
:104CE0002060A81EFDF71CFC69466060301CFCF7C4
:104CF000F7F80099301CFCF7BBF92649071CE81EA1
:104D0000FDF70EFCA060381CFCF712F92368002B9D
:104D10002CD063680021002B02D0A368002B27D081
:104D20000120FBF76DFC002801D003B0F0BDFCF7BB
:104D300087F902201849FBF733FC0028F5D16946B2
:104D4000301CFCF7CDF8411E4B424B410320D9B239
:104D5000FBF756FC0028E8D1009B019A0430991A11
:104D60004A424A41D1B2FBF74BFCDEE70021D7E7CC
:104D7000E368002BD4D1236959425941C9B2CFE726
:104D8000200F0020700E0020F45500089010002025
:104D9000F0550008FC550008A0620008C046C04657
:104DA000F0B583B001A90020FCF79AF8102100208B
:104DB000FCF75EF9011C4B1E9941041CC9B201208D
:104DC000FBF71EFC002801D003B0F0BD201CFCF74F
:104DD000AFF882490020FCF74BF9414241410220E3
:104DE000C9B2FBF70DFC0028EED17D4C01A9201CB7
:104DF000FCF776F81021201CFCF73AF91021071C6B
:104E0000201CFCF735F91021061C201CFCF730F99A
:104E1000051C381CFCF78CF8301CFCF789F8281CA2
:104E2000FCF786F86946201CFCF75AF8411E4842F8
:104E300041410320C9B2FBF7E3FB0028C4D1102194
:104E4000201CFCF715F91021051C201CFCF710F99B
:104E5000061C1021201CFCF70BF9FCF769F8301C2C
:104E6000FCF766F8281CFCF763F86946201CFCF781
:104E700037F8411E484241410420C9B2FBF7C0FB4C
:104E80000028A1D11121201CFCF7F2F81021051CEB
:104E9000201CFCF7EDF8061C281CFCF749F86946B5
:104EA000201CFCF71DF8811E484241410520C9B273
:104EB000FBF7A6FB002800D086E71021201CFCF79A
:104EC000D7F86946051C201CFCF70AF801210128C7
:104ED00007D06946201CFCF703F8811E4842414177
:104EE000C9B20620FBF78CFB002800D06CE7301C11
:104EF000FCF71EF8281CFCF71BF86946201CFBF782
:104F0000EFFF411E484241410720C9B2FBF778FB41
:104F1000002800D058E71021201CFCF7A9F8102128
:104F2000061C201CFCF7A4F8051C301CFCF700F83C
:104F30006946201CFBF7D4FF811E484241410820EE
:104F4000C9B2FBF75DFB002800D03DE72021201C03
:104F5000FCF78EF8FBF7ECFF281CFBF7E9FF69462E
:104F6000201CFBF7BDFF411E484241410920C9B248
:104F7000FBF746FB002800D026E76946201CFBF71C
:104F8000AFFF0099201CFCF773F86946051C201C34
:104F9000FBF7A6FF414241410A20C9B2FBF730FBB3
:104FA000002800D010E7281CFBF7C2FF6946201C30
:104FB000FBF796FF411E484241410B20C9B2FBF767
:104FC0001FFB002800D0FFE6009B019A0C30991AC5
:104FD0004B425941C9B2FBF713FBF5E600FFFFFF57
:104FE00048110020C046C046C046C046C046C04624
:104FF000CC200022064B0749C00099600A60486037
:10500000191C10311A60DA60196159619A61704790
:1050100048110020C0060020C046C046C046C04619
:1050200038B5474CA26972B6536B002B07D162B6F4
:1050300001210120FBF7E4FA011E0ED038BD5942D0
:1050400019408B43081C536362B641424141012021
:10505000C9B2FBF7D5FA011EF0D1A36972B65A6B3B
:10506000002A5DD0586362B60220FBF7C9FA011E20
:10507000E4D1A36972B65A6B013254D062B60131E1
:105080000320FBF7BDFA0028D8D1A56972B66B6B77
:10509000002B08D1013B2B620A300A21FCF708F9EA
:1050A000002843DB6B6B59420A1C1A4093436B6325
:1050B00062B651425141C9B20420FBF7A1FA00285F
:1050C000BCD1A56972B66B6B002B08D1013B2B627A
:1050D0000A300A21FCF7ECF800282ADB6B6B00226F
:1050E0006A6362B659425941C9B20520FBF788FA92
:1050F000051EA3D1A46972B6636B013308D00123E6
:105100005B4223620B200A21FCF7D2F8002813DB54
:105110000023636362B6291C0620FBF771FA8DE752
:1051200062B60131A0E7586362B6A9E762B6012111
:10513000C2E762B60121D8E762B60135EBE7C046A7
:10514000200F0020C046C046C046C046C046C046EC
:1051500008B5FDF7B5FA08BDC046C046C046C04612
:1051600008B5FDF7ADFA08BDC046C046C046C0460A
:1051700008B5FDF7A5FA08BDC046C046C046C04602
:10518000F0B55F4656464D464446F0B48FB072B611
:105190000723A94CA269516B0B43536362B6FDF719
:1051A0009FFA411E4B424B410120D9B2FBF728FA2E
:1051B000002806D00FB03CBC90469946A246AB46AC
:1051C000F0BDFDF78DFA811E4B424B410220D9B252
:1051D000FBF716FA0028EDD1FDF782FA011F4B42CA
:1051E0004B410320D9B2FBF70BFA0028E2D1FDF7BF
:1051F00067FA414241410420C9B2FBF701FA002895
:10520000D8D1FCF7BDF972B68C4B5F6A9A46BFB233
:1052100062B68B49A3698946A4219A68894E013AEE
:1052200049000093301C4B46FBF7CAFB864D2860B3
:10523000FDF756FA391C37373231804689B2BAB297
:105240000520FBF78DF90028B4D1414601394A42C7
:105250004A410630D1B2FBF7D3F90028AAD1FDF7B5
:105260002FFA414241410720C9B2FBF7C9F9002892
:10527000A0D1FBF7E5FE72B60523A269516B0B4383
:10528000536362B6FDF744FA411F4B424B4108207D
:10529000D9B2FBF7B5F9002800D08BE7FDF710FA7B
:1052A000414241410920C9B2FBF7AAF9002800D0C8
:1052B00080E7FCF765F972B653465F6ABFB262B623
:1052C000A421A36949009A68301C013A00934B4617
:1052D000FBF776FB2860FDF71BFA391C3A1C3231CC
:1052E0003732804689B292B20A20FBF739F900289A
:1052F00000D05FE7414601394A424A410B30D1B202
:10530000FBF77EF9002800D054E7FDF7D9F94142B8
:1053100041410C20C9B2FBF773F9071E00D049E7E1
:10532000FBF78EFE494B1B609946494B98461B6024
:1053300072B604AB9B464B461B685A4604934B46D9
:105340001A605B46A2695A605A46012393600123A2
:105350005B42D760136162B672B609AA92464246B2
:10536000126851460992424611605246A169516045
:1053700051460422CF608A600B6162B6FCF700F9E7
:1053800072B62E4B5F6ABFB262B63B1CA4213233A9
:105390009BB20393A369301C9A682E4B013A009389
:1053A00049002D4BFBF70CFBA469286072B6636BB8
:1053B0000522191C1140914204D022620B20FBF7F8
:1053C0002FFB636B05229343636362B63A1C37324B
:1053D00092B20D200399FBF7C3F8002800D0E9E64C
:1053E000FDF76EF9414241410E20C9B2FBF708F9C1
:1053F000002800D0DEE6FBF723FE48465946FBF7BF
:1054000007FA40465146FBF703FA4B461A680F204D
:10541000D11A4A424A41D1B2FBF7F2F8002800D033
:10542000C8E643461A681030D11A4A424A41D1B2FE
:10543000FBF7E6F8BEE6C046200F0020000400405F
:10544000A1540008C006002090100020B0060020E3
:10545000B4060020F455000861540008C046C04658
:1054600008B572B609480021FBF7D2FBFBF710FA2A
:1054700062B63220FCF77CF872B605480021FBF7D3
:10548000C7FBFBF705FA62B608BDC046B0060020B0
:10549000B4060020C046C046C046C046C046C0460E
:1054A00010B5041C3220FCF763F872B60121201CF1
:1054B000FBF78EFBFBF7ECF962B610BDC046C046A9
:1054C000F0B52F4C8BB0246072B623682D49009341
:1054D0006B4623608B690022019301230293023BF8
:1054E0000392049362B672B6896905AD69600221C0
:1054F0002068A96005902560EA602B6162B6236888
:105500000120191B4B1E9941C9B2FBF779F80028FD
:1055100001D00BB0F0BD201C6946FBF779F9236878
:105520000220191B4B1E9941C9B2FBF769F80028EC
:10553000EFD1201C291CFBF76BF923680320191BF2
:105540004B424B41D9B2FBF75BF80028E1D1002474
:10555000072501260C4F02E00134002D0BD02B1C37
:10556000E3401E42F8D0331CA3409D43A300DB5907
:10557000201C9847F0E705490420FBF711F8C8E71D
:10558000B0060020200F0020B0620008E061000893
:1055900008B54320FBF74CF808BDC046C046C046DE
:1055A00008B54220FBF744F808BDC046C046C046D7
:1055B00008B54120FBF73CF808BDC046C046C046D0
:1055C000D2030008B2030008B2030008D6030008A3
:1055D000A8030008A0030008B2030008A8030008FD
:1055E00069646C65000000000D0A00000000000006
:1055F00042000000410000004400000043000000A1
:10560000414243444500000000000000000000004B
:1056100058600008B11600080000000011170008CB
:1056200048600008A1160008000000003139000899
:1056300030600008E12F0008000000005138000829
:1056400018600008C12F0008000000006137000842
:1056500004600008912F000800000000B135000828
:105660004059000800000000000000000000000099
:10567000D0580008E0580008F0580008000000006A
:10568000245D0008113A000800000000C13A00083B
:105690006D61696E00160018040244080C1014189D
:1056A000001C1D1E000000000000000000000000A3
:1056B000F0590008C0560008005A00080000000019
:1056C000945F00086151000800000000815100084B
:1056D000806100080000000000000000413A00085E
:1056E0006C6100080000000000000000B1420008EA
:1056F0009C61000800000000000000002143000839
:105700000114000801150008711400086115000853
:105710006114000851150008F1130008F114000885
:10572000F06000080117000800000000411F000899
:10573000DC600008F116000800000000E11D000810
:10574000BC600008E116000800000000311D0008E0
:10575000986000080000000000000000211C000804
:10576000585F0008F14F000800000000A14D00083C
:10577000346100080000000000000000C1200008A3
:10578000BC5D0008313A000800000000213E00081E
:10579000405E00080000000000000000E14000083A
:1057A000485D00080000000000000000613B0008A8
:1057B000245E00080000000000000000D13F000847
:1057C000045D0008013A000800000000513A00089A
:1057D000E85C000800000000000000003124000820
:1057E000705E000800000000000000004142000858
:1057F000585E00080000000000000000D1410008D1
:10580000045E00080000000000000000513F000896
:10581000E45D00080000000000000000713D000889
:10582000F0560008D0560008E056000800000000BE
:10583000905D00080000000000000000813C0008AE
:105840006C5D00080000000000000000E13B000863
:10585000E0570008F057000890570008B0570008BC
:1058600000580008105800088057000830580008F9
:1058700040580008A057000880560008C05700088C
:10588000D0570008000000000000000000000000E9
:105890002058000850590008D0590008105A000834
:1058A0006056000890590008B056000810590008CA
:1058B000D0610008705600082059000850580008B0
:1058C00000000000000000000000000000000000D8
:1058D000105F0008D146000800000000C14C00081D
:1058E000E05E0008B146000800000000C14B00085F
:1058F000B85E00088146000800000000D149000899
:10590000D45F0008612F000800000000013000088B
:1059100060570008000000000000000000000000C8
:1059200070590008805900080000000000000000C5
:105930003C5F00081147000800000000F14A000821
:10594000F45F00080000000000000000313500088E
:10595000A059000870570008C0590008B059000845
:105960000000000000000000000000000000000037
:10597000A05E0008514600080000000051470008E2
:10598000885E00082146000800000000F14300087E
:1059900000590008000000000000000000000000A6
:1059A000506100080000000000000000C11A00085B
:1059B000086100080000000000000000212200082B
:1059C000186100080000000000000000D12200085B
:1059D000205700083057000840570008505700086B
:1059E00000000000000000000000000000000000B7
:1059F000B05F00087151000800000000C1540008A9
:105A0000805F00085151000800000000215000088C
:105A1000C0610008105600082056000830560008E3
:105A2000405600085056000800000000000000002A
:105A3000626C696E6B6572002D2D2D205379737425
:105A4000656D3A20000000002062797465730000E3
:105A50002D2D2D205468726561643A2000000000ED
:105A60002D2D2D2054696D6572203A200000000014
:105A70002D2D2D2053656D6170683A2000000000C7
:105A80002D2D2D204576656E74533A2000000000C0
:105A90002D2D2D204576656E744C3A2000000000B7
:105AA0002D2D2D204D75746578203A2000000000C2
:105AB0002D2D2D20436F6E64562E3A2000000000DD
:105AC0002D2D2D205175657565203A2000000000B0
:105AD0002D2D2D204D61696C422E3A2000000000D2
